:100000000C942A000C946A150C9496150C94C21545
:100010000C94681D0C943F1D0C94161D0C94ED1C43
:100020000C94C41C0C949B1C0C94721C0C94491CC6
:100030000C9447000C9447000C9447000C94470024
:100040000C945E140C9447000C9447000C944700E9
:100050000C94470011241FBECFE5D8E0DEBFCDBF12
:1000600011E0A0E6B0E0E2E6FFE302C005900D92E9
:10007000A83BB107D9F711E0A8EBB1E001C01D9290
:10008000AD3EB107E1F70E94911D0C94AF1F0C9497
:100090000000EF92FF920F93DF93CF93CDB7DEB7BF
:1000A00060970FB6F894DEBF0FBECDBFA82F002318
:1000B00009F461C07E010894E11CF11C88E0F7019D
:1000C00011928A95E9F729833A834B835C836D8388
:1000D0007E83AF83988780E2801BE82FFF27E7FDB0
:1000E000F09549815A816B817C81181684F01986BC
:1000F0001A861B861C86882799278E1B9F0B04C097
:10010000440F551F661F771F8A95D2F728C0202FEE
:10011000332727FD3095DB01CA01022E04C0880F6A
:10012000991FAA1FBB1F0A94D2F789879A87AB87AA
:10013000BC8704C07695679557954795EA95D2F7A1
:100140008D819E81AF81B88504C0880F991FAA1F39
:10015000BB1F2A95D2F7482B592B6A2B7B2B4D8737
:100160005E876F87788B29853A854B855C856D85A1
:100170007E85AF8598898A2F60960FB6F894DEBF8A
:100180000FBECDBFCF91DF910F91FF90EF900895FB
:10019000EF92FF920F931F937B018C0120E030E0E0
:1001A00040E05FE40E94291188238CF0C801B70168
:1001B00020E030E040E05FE40E94250F0E94B7118C
:1001C0009B01AC01205030404040504806C0C8015F
:1001D000B7010E94B7119B01AC01B901CA011F917F
:1001E0000F91FF90EF900895AEE5B0E0EAEFF0E0F8
:1001F0000C94781FA8E04E010894811C911CF40116
:100200006A2E11926A94E9F729833A834B835C83BF
:100210006D837E838F839887CE010996FC011192AE
:10022000AA95E9F7A986BA86CB86DC86ED86FE8696
:100230000F87188B29843A844B845C84ED84FE8478
:100240000F85188969807A808B809C806DA67EA638
:100250008FA698AA6D807E808F809884E114F10427
:100260000105110509F0B3C36214730484049504F5
:1002700008F03DC100E0201600E0300601E0400635
:1002800000E0500688F41FEF2116310441045104A8
:1002900039F030F048E0E42EF12C012D112D18C07A
:1002A000EE24FF24870114C020E0221620E032064D
:1002B00020E0420621E0520630F038E1E32EF12C36
:1002C000012D112D05C020E1E22EF12C012D112D63
:1002D000D201C1010E2C04C0B695A79597958795BC
:1002E0000A94D2F78E549F4FDC012C9180E290E06B
:1002F000A0E0B0E08E199F09A00BB10B7C018D012D
:10030000E21AF10801091109E114F10401051105CE
:10031000A1F10E2C04C0220C331C441C551C0A9461
:10032000D2F7A40193010E2C04C0220F331F441FE7
:10033000551F0A94D2F780E290E08E199F096DA4B0
:100340007EA48FA498A804C0969487947794679409
:100350008A95D2F7622A732A842A952AADA4BEA46C
:10036000CFA4D8A804C0AA0CBB1CCC1CDD1CEA94EA
:10037000D2F7ADA6BEA6CFA6D8AA6201EE24FF246E
:10038000CDAADEAAEFAAF8AE9201810120703070EA
:1003900009AF1AAF2BAF3CAFC401B301A70196015F
:1003A0000E94561F7B018C01C401B3012DA93EA9F7
:1003B0004FA958AD0E94561FC901DA013C014D01F9
:1003C000C401B30129AD3AAD4BAD5CAD0E94101F25
:1003D0009B01AC018701FF24EE24ADA4BEA4CFA4F1
:1003E000D8A8C601AA27BB2757016801A82AB92A9D
:1003F000CA2ADB2AA216B306C406D506E0F408947E
:100400006108710881089108A20CB31CC41CD51C9A
:10041000A214B304C404D50470F0A216B306C40633
:10042000D50648F408946108710881089108A20C67
:10043000B31CC41CD51CA21AB30AC40AD50AC6012F
:10044000B5012DA93EA94FA958AD0E94561F7B01A9
:100450008C01C601B5012DA93EA94FA958AD0E9436
:10046000561FC901DA015C016D01C601B50129AD54
:100470003AAD4BAD5CAD0E94101F9B01AC018701F2
:10048000FF24EE248DA59EA5AFA5B8A9A070B070DD
:10049000E82AF92A0A2B1B2BE216F3060407150794
:1004A000C0F40894A108B108C108D108E20CF31CFB
:1004B000041D151DE214F3040405150550F0E216A1
:1004C000F3060407150728F40894A108B108C10829
:1004D000D108D3019927882786017501E82AF92ACE
:1004E0000A2B1B2BE9AAFAAA0BAB1CABCFC4211415
:1004F00031044104510471F461E070E080E090E067
:1005000020E030E040E050E00E94561FC901DA01CF
:100510001C012D0100E0201600E0300601E040063D
:1005200000E0500688F41FEF211631044104510405
:1005300031F028F048E050E060E070E017C040E0A3
:1005400050E060E070E012C020E0221620E03206A9
:1005500020E0420621E0520628F048E150E060E049
:1005600070E004C040E150E060E070E0D201C10101
:10057000042E04C0B695A795979587950A94D2F74F
:100580008E549F4FDC012C91E0E2EE2EF12C012DD8
:10059000112DD801C701841B950BA60BB70B821B2D
:1005A0009109A109B1090097A105B10561F46401A0
:1005B0005301A218B308C408D50831E0632E712C8A
:1005C000812C912C1EC16F968FAF6F97082E04C09F
:1005D000220C331C441C551C0A94D2F7EE2DE81B48
:1005E000640153010E2E04C0D694C794B794A79407
:1005F0000A94D2F7A40193016F960FAC6F9704C0D1
:10060000220F331F441F551F0A94D2F76DA47EA4F6
:100610008FA498A80E2E04C096948794779467941C
:100620000A94D2F784017301E22AF32A042B152BD2
:10063000E9A6FAA60BA71CA73201882499249201E7
:1006400081012070307021960CAF1DAF2EAF3FAFEF
:100650002197C601B501A40193010E94561F7B0199
:100660008C01C601B501A40193010E94561FC90166
:10067000DA0125968CAF9DAFAEAFBFAF2597BC0119
:10068000CD0121962CAD3DAD4EAD5FAD21970E94C1
:10069000101F9B01AC018701FF24EE24A9A4BAA47A
:1006A000CBA4DCA4C601AA27BB275C016D01AE2840
:1006B000BF28C02AD12AA216B306C406D50660F503
:1006C00025966CAD7DAD8EAD9FAD25976150704088
:1006D0008040904025966CAF7DAF8EAF9FAF259741
:1006E000A20CB31CC41CD51CA214B304C404D504AE
:1006F00098F0A216B306C406D50670F46150704097
:100700008040904025966CAF7DAF8EAF9FAF259710
:10071000A20CB31CC41CD51CA21AB30AC40AD50A65
:10072000C601B501A40193010E94561F7B018C01F3
:10073000C601B501A40193010E94561FC901DA0147
:100740003C014D01C401B30121962CAD3DAD4EAD30
:100750005FAD21970E94101F9B01AC018701FF2410
:10076000EE2489A59AA5ABA5BCA5A070B0705701D1
:100770006801A82AB92ACA2ADB2AA216B306C40627
:10078000D506E0F408946108710881089108A20C6C
:10079000B31CC41CD51CA214B304C404D50470F04B
:1007A000A216B306C406D50648F408946108710879
:1007B00081089108A20CB31CC41CD51C8DA59EA554
:1007C000AFA5B8A96F960FAC6F9704C0880F991F9B
:1007D000AA1FBB1F0A94D2F78DA79EA7AFA7B8ABDD
:1007E000A21AB30AC40AD50A2596ECACFDAC0EAD2C
:1007F0001FAD2597D70199278827682A792A8A2A41
:100800009B2A82012227332729960CAF1DAF2EAFDA
:100810003FAF2997A2019101407050702D962CAFE7
:100820003DAF4EAF5FAF2D97C601B50129962CADF8
:100830003DAD4EAD5FAD29970E94561F7B018C01E7
:10084000C601B50129962CAD3DAD4EAD5FAD2997E2
:100850000E94561FC901DA0161968CAF9DAFAEAF01
:10086000BFAF6197BC01CD012D962CAD3DAD4EAD16
:100870005FAD2D970E94101F9B01AC018701FF24E3
:10088000EE24ADA4BEA4CFA4D8A8C601AA27BB2736
:1008900057016801A82AB92ACA2ADB2AA216B30678
:1008A000C406D50660F561966CAD7DAD8EAD9FAD8D
:1008B0006197615070408040904061966CAF7DAF11
:1008C0008EAF9FAF6197A20CB31CC41CD51CA214A1
:1008D000B304C404D50498F0A216B306C406D50622
:1008E00070F4615070408040904061966CAF7DAF75
:1008F0008EAF9FAF6197A20CB31CC41CD51CA21A6B
:10090000B30AC40AD50AC601B50129962CAD3DAD7E
:100910004EAD5FAD29970E94561F7B018C01C60129
:10092000B50129962CAD3DAD4EAD5FAD29970E9426
:10093000561FC901DA015C016D01C601B5012D9692
:100940002CAD3DAD4EAD5FAD2D970E94101F9B01AC
:10095000AC018701FF24EE248DA59EA5AFA5B8A903
:10096000A070B070E82AF92A0A2B1B2BE216F306B6
:1009700004071507C0F40894A108B108C108D108FC
:10098000E20CF31C041D151DE214F3040405150507
:1009900050F0E216F3060407150728F40894A1089E
:1009A000B108C108D1086196ECACFDAC0EAD1FAD2D
:1009B0006197D7019927882796018501082B192B64
:1009C0002A2B3B2B09AB1AAB2BAB3CAB62C26E1490
:1009D0007F048006910608F451C220E0E21620E070
:1009E000F20621E0020720E0120788F43FEFE31649
:1009F000F1040105110531F028F048E050E060E015
:100A000070E017C040E050E060E070E012C040E0ED
:100A1000E41640E0F40640E0040741E0140728F043
:100A200048E150E060E070E004C040E150E060E088
:100A300070E0D801C701042E04C0B695A79597951C
:100A400087950A94D2F78E549F4FDC012C9130E2A7
:100A5000A32EB12CC12CD12CD601C501841B950B22
:100A6000A60BB70B821B9109A109B1090097A1053B
:100A7000B10589F4E614F7040805190508F4F2C174
:100A80006DA47EA48FA498A86214730484049504B2
:100A900008F0E8C1F3C16E968FAF6E97082E04C0C0
:100AA000EE0CFF1C001F111F0A94D2F76A2D681B61
:100AB000D201C101062E04C0B695A79597958795DA
:100AC0000A94D2F75C016D01AE28BF28C02AD12A52
:100AD000ADA2BEA2CFA2D8A6720161016E960FACE4
:100AE0006E9704C0CC0CDD1CEE1CFF1C0A94D2F7E0
:100AF000C9A2DAA2EBA2FCA264015301062E04C033
:100B0000D694C794B794A7940A94D2F7D401C3019A
:100B10006E960FAC6E9704C0880F991FAA1FBB1F5B
:100B20000A94D2F7EDA4FEA40FA518A904C0169547
:100B30000795F794E7946A95D2F737014801682A38
:100B4000792A8A2A9B2A6D8E7E8E8F8E98A2EDA09E
:100B5000FEA00FA118A538018824992498018701C7
:100B60002070307065960CAF1DAF2EAF3FAF65970C
:100B7000C601B501A40193010E94561F7B018C019F
:100B8000C601B501A40193010E94561FC901DA01F3
:100B90001C012D01C201B10165962CAD3DAD4EADDC
:100BA0005FAD65970E94101F9B01AC018701FF2478
:100BB000EE24AD8CBE8CCF8CD8A0C601AA27BB2753
:100BC00057016801A82AB92ACA2ADB2AA216B30645
:100BD000C406D50600F508942108310841085108DB
:100BE000EDA0FEA00FA118A5AE0CBF1CC01ED11E0B
:100BF000AE14BF04C006D10670F0A216B306C40638
:100C0000D50648F408942108310841085108AE0C73
:100C1000BF1CC01ED11EA21AB30AC40AD50AC6013F
:100C2000B501A40193010E94561F7B018C01C601EE
:100C3000B501A40193010E94561FC901DA013C01CC
:100C40004D01C401B30165962CAD3DAD4EAD5FAD18
:100C500065970E94101F9B01AC018701FF24EE24C1
:100C60008D8D9E8DAF8DB8A1A070B07057016801B9
:100C7000A82AB92ACA2ADB2AA216B306C406D506B0
:100C800000F5089461087108810891086DA17EA1A2
:100C90008FA198A5A60EB71EC81ED91EA616B70608
:100CA000C806D90670F0A216B306C406D50648F4E5
:100CB00008946108710881089108A60EB71EC81E25
:100CC000D91ED601C501821B930BA40BB50B898FCE
:100CD0009A8FAB8FBC8FD10199278827640153016C
:100CE000A82AB92ACA2ADB2AA9AABAAACBAADCAAA4
:100CF000860175012FEF3FEF40E050E0E222F32242
:100D000004231523A601662777276D964CAF5DAFA8
:100D10006EAF7FAF6D97A9A0BAA0CBA0DCA06FEF9C
:100D20007FEF80E090E0A622B722C822D92289A1D5
:100D30009AA1ABA1BCA11D0144245524C801B7014F
:100D4000A60195010E94101F69966CAF7DAF8EAF12
:100D50009FAF6997C801B701A20191010E94101FBE
:100D60003B014C016D966CAD7DAD8EAD9FAD6D9729
:100D7000A60195010E94101F7B018C016D966CAD40
:100D80007DAD8EAD9FAD6D97A20191010E94101FA8
:100D90005B016C01A8019701260D371D481D591DE7
:100DA00069966CAC7DAC8EAC9FAC6997C401AA27E8
:100DB000BB27280F391F4A1F5B1F2E153F05400711
:100DC000510748F4E12CF12C61E0062F112DAE0CF7
:100DD000BF1CC01ED11ECA01AA27BB27BC01CD0162
:100DE0006A0D7B1D8C1D9D1D698C7A8C8B8C9C8C57
:100DF000661677068806990640F166157705880518
:100E0000990509F043C0D9019927882769962CAD27
:100E10003DAD4EAD5FAD699740705070820F931F2E
:100E2000A41FB51F2DA53EA54FA558A96E960FACC2
:100E30006E9704C0220F331F441F551F0A94D2F728
:100E4000281739074A075B0708F509A91AA92BA92A
:100E50003CA9015010402040304009AB1AAB2BABED
:100E60003CAB14C066247724430121E030E040E02D
:100E700050E029AB3AAB4BAB5CAB0BC0662477249C
:100E8000430119AA1AAA1BAA1CAA03C06624772424
:100E90004301FE01719688E0DF011D928A95E9F712
:100EA000A9A8BAA8CBA8DCA8A98ABA8ACB8ADC8A66
:100EB0006D8A7E8A8F8A988E29A93A894B895C89A6
:100EC000662D7E898F89988DC25ADF4FE2E10C949E
:100ED000941FABE5B0E0EFE6F7E00C94781FA8E0D4
:100EE0004E010894811C911CF4016A2E11926A949F
:100EF000E9F729833A834B835C836D837E838F83F9
:100F00009887CE010996FC011192AA95E9F7A98666
:100F1000BA86CB86DC86ED86FE860F87188B298401
:100F20003A844B845C84AD84BE84CF84D888298184
:100F30003A814B815C8169962FAF69976A963FAF82
:100F40006A976B964FAF6B976C965FAF6C976C968A
:100F50006CAC7DAC8EAC9FAC6C9769AA7AAA8BAA5C
:100F60009CAA6D817E818F8198853B014C016DAA81
:100F70007EAA8FAA98AEA114B104C104D10409F0CD
:100F800004C3621473048404950408F000C100E0F3
:100F9000201600E0300601E0400600E0500688F42C
:100FA0001FEF211631044104510439F030F088E07C
:100FB000E82EF12C012D112D18C0EE24FF248701FD
:100FC00014C040E0241640E0340640E0440641E00E
:100FD000540630F0B8E1EB2EF12C012D112D05C097
:100FE000A0E1EA2EF12C012D112DD201C1010E2C10
:100FF00004C0B695A795979587950A94D2F78E5415
:101000009F4FDC012C9180E290E0A0E0B0E08E19CF
:101010009F09A00BB10B5C016D01A21AB108C108B8
:10102000D108A9AEBAAECBAEDCAEA114B104C104F6
:10103000D10409F43FC069AD062E04C0220C331C54
:10104000441C551C0A94D2F7A4019301062E04C037
:10105000220F331F441F551F0A94D2F780E290E0FD
:101060008A199B096C96CCACDDACEEACFFAC6C97EE
:1010700004C0F694E794D794C7948A95D2F7870171
:101080007601E22AF32A042B152BEDAAFEAA0FAB58
:1010900018AF6C968CAD9DADAEADBFAD6C9704C076
:1010A000880F991FAA1FBB1F6A95D2F789AB9AAB0D
:1010B000ABABBCAB320188249924B201A1016070B2
:1010C000707021964CAF5DAF6EAF7FAF21976DA969
:1010D0007EA98FA998ADA40193010E94561F7B01A0
:1010E0008C016DA97EA98FA998ADA40193010E94DE
:1010F000561FCA01B90121962CAD3DAD4EAD5FAD75
:1011000021970E94101F9B01AC018701FF24EE2450
:10111000A9A8BAA8CBA8DCA8C601AA27BB27570153
:101120006801A82AB92ACA2ADB2AA216B306C4066D
:10113000D50690F4A20CB31CC41CD51CA214B30495
:10114000C404D50448F0A216B306C406D50620F49C
:10115000A20CB31CC41CD51CA21AB30AC40AD50A1B
:10116000C601B501A40193010E94561F7B018C01A9
:10117000C601B501A40193010E94561FCA01B9011D
:1011800021962CAD3DAD4EAD5FAD2197BAC1211476
:1011900031044104510471F461E070E080E090E0BA
:1011A00020E030E040E050E00E94561FC901DA0123
:1011B0001C012D0100E0201600E0300601E0400691
:1011C00000E0500688F41FEF211631044104510459
:1011D00039F030F068E0E62EF12C012D112D18C009
:1011E000EE24FF24870114C040E0241640E03406BA
:1011F00040E0440641E0540630F058E1E52EF12C81
:10120000012D112D05C040E1E42EF12C012D112DF1
:10121000D201C1010E2C04C0B695A795979587956C
:101220000A94D2F78E549F4FDC012C9130E2A32E0A
:10123000B12CC12CD12CD601C5018E199F09A00B50
:10124000B10B7C018D01E21AF10801091109E9AE27
:10125000FAAE0BAF1CAFE114F1040105110539F42E
:1012600064015301A218B308C408D508E2C0F9AC60
:101270006896FFAE68970F2C04C0220C331C441CE8
:10128000551C0A94D2F78A2D8F1964015301082E38
:1012900004C0D694C794B794A7940A94D2F7A40133
:1012A000930104C0220F331F441F551FFA94D2F735
:1012B0006C966CAC7DAC8EAC9FAC6C9704C0969475
:1012C0008794779467948A95D2F784017301E22A10
:1012D000F32A042B152BEDA6FEA60FA718AB32019F
:1012E00088249924B201A1016070707025964CAFDA
:1012F0005DAF6EAF7FAF2597C601B501A401930125
:101300000E94561F7B018C01C601B501A401930107
:101310000E94561FCA01B90125962CAD3DAD4EADB8
:101320005FAD25970E94101F9B01AC018701FF2430
:10133000EE24ADA4BEA4CFA4D8A8C601AA27BB277B
:101340005C016D01AE28BF28C02AD12AA216B306BF
:10135000C406D50690F4A20CB31CC41CD51CA21460
:10136000B304C404D50448F0A216B306C406D506D7
:1013700020F4A20CB31CC41CD51CA21AB30AC40AC4
:10138000D50AC601B501A40193010E94561F7B0135
:101390008C01C601B501A40193010E94561FCA0128
:1013A000B90125962CAD3DAD4EAD5FAD25970E94A0
:1013B000101F9B01AC018701FF24EE248DA59EA583
:1013C000AFA5B8A9A070B07057016801A82AB92AC2
:1013D000CA2ADB2AA216B306C406D50690F4A20CCC
:1013E000B31CC41CD51CA214B304C404D50448F017
:1013F000A216B306C406D50620F4A20CB31CC41C66
:10140000D51C6C96ECACFDAC0EAD1FAD6C97689620
:101410000FAC689704C0EE0CFF1C001F111F0A944C
:10142000D2F7E9AAFAAA0BAB1CABA21AB30AC40AF8
:10143000D50A320188249924B201A101607070702C
:1014400029964CAF5DAF6EAF7FAF2997C601B5014E
:10145000A40193010E94561F7B018C01C601B501B6
:10146000A40193010E94561FCA01B90129962CAD0F
:101470003DAD4EAD5FAD29970E94101F9B01AC01A1
:101480008701FF24EE24A9A8BAA8CBA8DCA8C6012E
:10149000AA27BB2757016801A82AB92ACA2ADB2A2A
:1014A000A216B306C406D50690F4A20CB31CC41C45
:1014B000D51CA214B304C404D50448F0A216B30684
:1014C000C406D50620F4A20CB31CC41CD51CA21A59
:1014D000B30AC40AD50AC601B501A40193010E944A
:1014E000561F7B018C01C601B501A40193010E9426
:1014F000561FCA01B90129962CAD3DAD4EAD5FAD69
:1015000029970E94101F9B01AC018701FF24EE2444
:1015100089A99AA9ABA9BCA9A070B070E82AF92A38
:101520000A2B1B2BE216F3060407150790F4E20CB6
:10153000F31C041D151DE214F3040405150548F001
:10154000E216F3060407150720F4E20CF31C041D51
:10155000151DE21AF30A040B150BD801C70109ACDB
:1015600004C0B695A795979587950A94D2F7898B6D
:101570009A8BAB8BBC8B1D8A1E8A1F8A188E282FD4
:101580003A894B895C896D890CC36A147B048C048D
:101590009D0408F409C300E0A01600E0B00601E0D5
:1015A000C00600E0D00688F41FEFA116B104C10404
:1015B000D10439F030F028E0E22EF12C012D112D6C
:1015C00018C0EE24FF24870114C040E0A41640E0B8
:1015D000B40640E0C40641E0D40630F098E1E92EBC
:1015E000F12C012D112D05C080E1E82EF12C012DEB
:1015F000112DD601C5010E2C04C0B695A79597955F
:1016000087950A94D2F78E549F4FDC012C9180E28B
:1016100090E0A0E0B0E08E199F09A00BB10B821BF7
:101620009109A109B1090097A105B10509F04FC0C1
:10163000A614B704C804D90458F06C96ECACFDAC01
:101640000EAD1FAD6C97E214F3040405150568F1A7
:101650006C96ECACFDAC0EAD1FAD6C97E218F308C8
:1016600004091509A40193012A193B094C095D09D4
:10167000AA24BB2465016C966CAD7DAD8EAD9FAD8B
:101680006C976E157F058007910728F4B1E0AB2EAB
:10169000B12CC12CD12CDA01C9018A199B09AC09E2
:1016A000BD098DAB9EABAFABB8AFE98AFA8A0B8BA5
:1016B0001C8B6DA87EA88FA898AC6D8A7E8A8F8AB5
:1016C000988E2E2D3A894B895C896DA96AC26796DE
:1016D0008FAF6797A6019501082E04C0220F331F14
:1016E000441F551F0A94D2F7A0E2AA2EA81A6696A4
:1016F000AFAE6697D201C10104C0B695A795979584
:101700008795AA94D2F76C017D01C22AD32AE42AD4
:10171000F52AC9A6DAA6EBA6FCA682017101679696
:101720000FAC679704C0EE0CFF1C001F111F0A943A
:10173000D2F7EDA2FEA20FA318A76401530166968B
:101740000FAC669704C0D694C794B794A7940A9434
:10175000D2F7A401930167960FAC679704C0220FDC
:10176000331F441F551F0A94D2F76C968CAD9DAD64
:10177000AEADBFAD6C9766960FAC669704C0B695DC
:10178000A795979587950A94D2F73C014D01622A57
:10179000732A842A952A69A27AA28BA29CA26C96AB
:1017A000ECACFDAC0EAD1FAD6C9767960FAC6797B8
:1017B00004C0EE0CFF1C001F111F0A94D2F7ED8E1F
:1017C000FE8E0F8F18A349A55AA56BA57CA53B01DA
:1017D00088249924607070702D964CAF5DAF6EAF09
:1017E0007FAF2D97C601B501A40193010E94561F3A
:1017F0007B018C01C601B501A40193010E94561F13
:10180000C901DA011C012D01C201B1012D962CADD7
:101810003DAD4EAD5FAD2D970E94101F9B01AC01F9
:101820008701FF24EE24A9A0BAA0CBA0DCA0C601AA
:10183000AA27BB2757016801A82AB92ACA2ADB2A86
:10184000A216B306C406D50600F50894210831088F
:1018500041085108E9A4FAA40BA51CA5AE0CBF1CB5
:10186000C01ED11EAE14BF04C006D10670F0A21671
:10187000B306C406D50648F4089421083108410887
:101880005108AE0CBF1CC01ED11EA21AB30AC40A56
:10189000D50AC601B501A40193010E94561F7B0120
:1018A0008C01C601B501A40193010E94561FC90114
:1018B000DA013C014D01C401B3012D962CAD3DADC3
:1018C0004EAD5FAD2D970E94101F9B01AC018701AB
:1018D000FF24EE2489A19AA1ABA1BCA1A070B07095
:1018E00057016801A82AB92ACA2ADB2AA216B30618
:1018F000C406D50600F508946108710881089108AE
:1019000069A57AA58BA59CA5A60EB71EC81ED91ED3
:10191000A616B706C806D90670F0A216B306C40606
:10192000D50648F408946108710881089108A60E4C
:10193000B71EC81ED91ED601C501821B930BA40B6E
:10194000B50B898F9A8FAB8FBC8FD10199278827D0
:1019500084017301E82AF92A0A2B1B2B4FEFA42ECE
:101960004FEFB42EC12CD12CAE20BF20C022D122EB
:101970007801002711276DA07EA08FA098A44FEFBB
:101980005FEF60E070E064227522862297228DA1CD
:101990009EA1AFA1B8A5BD018827992765966CAF18
:1019A0007DAF8EAF9FAF6597C601B501A4019301CE
:1019B0000E94101F61966CAF7DAF8EAF9FAF619795
:1019C000C601B50165962CAD3DAD4EAD5FAD6597D9
:1019D0000E94101F1B012C01C801B701A401930133
:1019E0000E94101F5B016C01C801B70165962CAD08
:1019F0003DAD4EAD5FAD65970E94101F7B018C0120
:101A0000A6019501220D331D441D551D61966CAC38
:101A10007DAC8EAC9FAC6197C401AA27BB27280F71
:101A2000391F4A1F5B1F2A153B054C055D0548F40D
:101A3000812C912CE1E0AE2EB12CE80CF91C0A1D92
:101A40001B1DCA01AA27BB2757016801A80EB91E92
:101A5000CA1EDB1EA9013327222761968CAD9DADDE
:101A6000AEADBFAD6197A070B070280F391F4A1F8F
:101A70005B1FE98CFA8C0B8D1C8DEA14FB040C05A2
:101A80001D0570F0AE14BF04C006D10669F56D8D5A
:101A90007E8D8F8D98A1621773078407950720F5B7
:101AA000DA01C9016DA07EA08FA098A486199709BC
:101AB000A809B909E9A4FAA40BA51CA5AE18BF088A
:101AC000C00AD10AEE24FF248701281739074A07E4
:101AD0005B0728F421E0E22EF12C012D112DAE1828
:101AE000BF08C00AD10A02C0DA01C9016D8C7E8C20
:101AF0008F8C98A0681A790A8A0A9B0A498D5A8D98
:101B00006B8D7C8D4A195B096C097D095A016B014B
:101B10002224332421016D8D7E8D8F8D98A1661531
:101B200077058805990528F481E0282E312C412C71
:101B3000512C86017501E218F30804091509A80162
:101B4000970166960FAC669704C0220F331F441F9F
:101B5000551F0A94D2F7D401C30167960FAC67975B
:101B600004C0B695A795979587950A94D2F7282B28
:101B7000392B4A2B5B2B298B3A8B4B8B5C8B6796D3
:101B80000FAC679704C016950795F794E7940A94ED
:101B9000D2F7ED8AFE8A0F8B188F3A894B895C89C0
:101BA0006E2D7E898F89988DC55ADF4FE2E10C94A6
:101BB000941FA0E0B0E0EFEDFDE00C94781FDC0195
:101BC0002B01FA019C91923008F439C1EB01888114
:101BD000823008F433C1943069F4843009F02FC1A5
:101BE00011969C9111978981981709F428C1AAEA46
:101BF000B0E025C1843009F421C18230A9F49230CB
:101C000009F01DC19A01AD0188E0EA010990AE0119
:101C1000E90109929E018150C1F7E2018981119683
:101C20009C918923818308C1923009F407C11296DF
:101C30002D903C901397EB018A819B811496AD9077
:101C4000BD90CD90DC901797EC80FD800E811F81B8
:101C50009101281B390BB90137FF04C0662777278C
:101C6000621B730B603271050CF061C01216130613
:101C70006CF537014801062E04C09694879477943A
:101C800067940A94D2F721E030E040E050E004C0CD
:101C9000220F331F441F551F6A95D2F72150304041
:101CA000404050402E213F21402351232115310532
:101CB0004105510521F021E030E040E050E079019C
:101CC0008A01E628F728082919293CC0232BD1F1DD
:101CD000260E371E35014601062E04C096948794C1
:101CE000779467940A94D2F721E030E040E050E026
:101CF00004C0220F331F441F551F6A95D2F721508D
:101D00003040404050402A213B214C215D2121158B
:101D100031054105510521F021E030E040E050E07F
:101D200059016A01A628B728C828D9280BC08215EE
:101D300093052CF01C01AA24BB24650103C0EE24EA
:101D4000FF24870111969C91D20111968C919817CE
:101D500009F445C0992339F0A80197012A193B09D4
:101D60004C095D0906C0A60195012E193F09400BDB
:101D7000510B57FD08C011823382228224833583A0
:101D8000468357831DC081E0818333822282882766
:101D90009927DC01821B930BA40BB50B84839583DD
:101DA000A683B7830DC0220F331F441F551F248302
:101DB00035834683578382819381019793838283FE
:101DC0002481358146815781DA01C9010197A10932
:101DD000B1098F5F9F4FAF4FBF4328F30BC0918373
:101DE00033822282EA0CFB1C0C1D1D1DE482F5824D
:101DF0000683178383E08083248135814681578160
:101E000057FF1AC0C901AA2797FDA095BA2F817064
:101E10009070A070B0705695479537952795822B96
:101E2000932BA42BB52B84839583A683B7838281C0
:101E30009381019693838283DF0101C0D201CD019A
:101E4000CDB7DEB7E2E10C94941FA0E2B0E0EBE284
:101E5000FFE00C94841F69837A838B839C832D839A
:101E60003E834F835887E9E0EE2EF12CEC0EFD1EE9
:101E7000CE010196B7010E942F138E010F5E1F4FF6
:101E8000CE010596B8010E942F138A8991E0892717
:101E90008A8BC701B801AE01475E5F4F0E94D90D22
:101EA0000E945A12A096E6E00C94A01FA0E2B0E0B7
:101EB000ECE5FFE00C94841F69837A838B839C8319
:101EC0002D833E834F835887F9E0EF2EF12CEC0EE3
:101ED000FD1ECE010196B7010E942F138E010F5EE9
:101EE0001F4FCE010596B8010E942F13C701B801FC
:101EF000AE01475E5F4F0E94D90D0E945A12A09614
:101F0000E6E00C94A01FA0E2B0E0E9E8FFE00C944A
:101F1000781F69837A838B839C832D833E834F83D1
:101F20005887CE010196BE01675F7F4F0E942F1335
:101F3000CE010596BE016F5E7F4F0E942F139985DB
:101F4000923088F089898230C8F0943019F4823058
:101F500051F404C0843029F4923081F48AEA90E08C
:101F6000C6C0923049F420E09A858A89981321E00E
:101F70002A87CE010996BBC0823049F420E09A85B9
:101F80008A89981321E02A8BCE014196B0C02D8416
:101F90003E844F8458886D887E888F88988CEE2484
:101FA000FF248701AA24BB24650140E050E060E0E3
:101FB00070E0E0E0F0E0C10181709070892BE9F001
:101FC000E60CF71C081D191D9A01AB012A0D3B1DDB
:101FD0004C1D5D1D80E090E0A0E0B0E0E614F70449
:101FE0000805190520F481E090E0A0E0B0E0BA0116
:101FF000A901480F591F6A1F7B1FAA0CBB1CCC1CD0
:10200000DD1C97FE08C081E090E0A0E0B0E0A82AC7
:10201000B92ACA2ADB2A3196E032F10549F0660C6A
:10202000771C881C991C5694479437942794C3CFE7
:10203000FA85EA892B893C898B859C85280F391F75
:102040002E5F3F4F17C0CA0181709070892B61F0DD
:1020500016950795F794E79480E090E0A0E0B0E84B
:10206000E82AF92A0A2B1B2B7695679557954795F1
:102070002F5F3F4F77FDE7CF0CC0440F551F661F02
:10208000771F17FD4160EE0CFF1C001F111F215030
:102090003040403090E0590790E0690790E47907BC
:1020A00060F32B8F3C8FDB01CA018F779070A0709B
:1020B000B07080349105A105B10561F447FD0AC0F7
:1020C000E114F1040105110529F0405C5F4F6F4FE9
:1020D0007F4F40781A8EFE1711F081E08A8F4D8F66
:1020E0005E8F6F8F78A383E0898FCE0149960E941F
:1020F0005A12A096E2E10C94941FA8E1B0E0E3E844
:10210000F0E10C94801F69837A838B839C832D83F9
:102110003E834F835887B9E0EB2EF12CEC0EFD1E69
:10212000CE010196B7010E942F138E010F5E1F4F43
:10213000CE010596B8010E942F132985223008F49C
:102140007EC03989323010F4B8017CC08A859A8902
:1021500089278A87243011F0223031F4231709F0BF
:102160006EC06AEA70E06EC0343039F41D861E8697
:102170001F86188A1C861B8604C0323021F484E036
:102180008987B7015FC02B853C858B899C89281B7B
:10219000390B3C872B87ED84FE840F851889AD8829
:1021A000BE88CF88D88CEA14FB040C051D0540F4CA
:1021B000EE0CFF1C001F111F215030403C872B8765
:1021C00020E030E040E050E080E090E0A0E0B0E4CB
:1021D00060E070E0EA14FB040C051D0540F0282BBC
:1021E000392B4A2B5B2BEA18FB080C091D09B69505
:1021F000A79597958795EE0CFF1C001F111F6F5F29
:102200007F4F6F31710531F7DA01C9018F77907017
:10221000A070B07080349105A105B10561F427FD6F
:102220000AC0E114F1040105110529F0205C3F4FBB
:102230004F4F5F4F20782D873E874F87588BBE01C9
:10224000675F7F4FCB010E945A126896EAE00C94B8
:102250009C1FA8E1B0E0EFE2F1E10C94841F6983D8
:102260007A838B839C832D833E834F83588789E0B9
:10227000E82EF12CEC0EFD1ECE010196B7010E9456
:102280002F138E010F5E1F4FCE010596B8010E94DD
:102290002F138985823040F08989823028F0C70168
:1022A000B8010E94A71301C08FEF6896E6E00C9476
:1022B000A01FA8E0B0E0EFE5F1E10C94811F9B01C5
:1022C000AC0183E08983DA01C9018827B7FD8395D2
:1022D0009927AA27BB27B82E21153105410551059D
:1022E00019F482E089833AC08823A9F0203080E085
:1022F000380780E0480780E8580729F460E070E07C
:1023000080E09FEC30C0EE24FF248701E21AF30A3C
:10231000040B150B02C079018A018EE1C82ED12C65
:10232000DC82CB82ED82FE820F831887C801B70161
:102330000E940B1201971816190684F4082E04C087
:10234000EE0CFF1C001F111F0A94D2F7ED82FE82D3
:102350000F831887C81AD90ADC82CB82BA82CE01D1
:1023600001960E945A122896E9E00C949D1FACE059
:10237000B0E0EDEBF1E10C94881F69837A838B83E5
:102380009C83CE010196BE016B5F7F4F0E942F138D
:102390008D81823061F1823050F1843021F48E8160
:1023A000882351F12EC02F81388537FD20C06E81E2
:1023B0002F3131051CF06623F9F023C08EE190E047
:1023C000821B930B29853A854B855C8504C0569505
:1023D0004795379527958A95D2F76623B1F05095A2
:1023E0004095309521953F4F4F4F5F4F0EC020E0F5
:1023F00030E040E050E009C02FEF3FEF4FEF5FE7E4
:1024000004C020E030E040E050E8B901CA012C9659
:10241000E2E00C94A41FEF92FF920F931F937B01B5
:102420008C0180E0E81680E0F80681E0080780E093
:10243000180788F48FEFE816F1040105110531F053
:1024400028F088E090E0A0E0B0E017C080E090E0E5
:10245000A0E0B0E012C080E0E81680E0F80680E07E
:10246000080781E0180728F088E190E0A0E0B0E0DC
:1024700004C080E190E0A0E0B0E020E230E040E085
:1024800050E0281B390B4A0B5B0B04C016950795CF
:10249000F794E7948A95D2F7F701EE54FF4F8081C5
:1024A000281B310941095109C9011F910F91FF9062
:1024B000EF900895DF92EF92FF920F931F93FC012C
:1024C000E480F58006811781D1808081823048F4D4
:1024D00080E090E0A0E1B0E0E82AF92A0A2B1B2B6B
:1024E000A5C0843009F49FC0823021F4EE24FF247B
:1024F000870105C0E114F1040105110519F4E0E0BC
:10250000F0E096C0628173819FEF623879070CF02A
:102510005BC022E83FEF261B370B2A3131052CF038
:1025200020E030E040E050E02AC0B801A701022ED0
:1025300004C076956795579547950A94D2F781E040
:1025400090E0A0E0B0E004C0880F991FAA1FBB1F55
:102550002A95D2F70197A109B1098E219F21A023C5
:10256000B1230097A105B10521F081E090E0A0E042
:10257000B0E09A01AB01282B392B4A2B5B2BDA01F7
:10258000C9018F779070A070B07080349105A1055B
:10259000B10539F427FF09C0205C3F4F4F4F5F4F13
:1025A00004C0215C3F4F4F4F5F4FE0E0F0E0203030
:1025B000A0E03A07A0E04A07A0E45A0710F0E1E0E3
:1025C000F0E079018A0127C06038710564F5FB01EC
:1025D000E158FF4FD801C7018F779070A070B0709D
:1025E00080349105A105B10539F4E7FE0DC080E402
:1025F00090E0A0E0B0E004C08FE390E0A0E0B0E0A5
:10260000E80EF91E0A1F1B1F17FF05C01695079538
:10261000F794E794319687E016950795F794E79439
:102620008A95D1F705C0EE24FF248701EFEFF0E093
:102630006E2F679566276795902F9F77D794DD2437
:10264000D7948E2F8695492F462B582F5D29B70199
:10265000CA011F910F91FF90EF90DF900895FC0148
:10266000DB01408151812281622F6F7770E0221F50
:102670002227221F9381892F880F822B282F30E059
:10268000991F9927991F11969C9311972115310530
:10269000A9F5411551056105710511F482E037C0B6
:1026A00082E89FEF13969C938E9312979A01AB0149
:1026B00067E0220F331F441F551F6A95D1F783E04F
:1026C0008C930DC0220F331F441F551F12968D91FE
:1026D0009C911397019713969C938E931297203099
:1026E00080E0380780E0480780E4580758F31496E4
:1026F0002D933D934D935C93179708952F3F31058C
:1027000079F4411551056105710519F484E08C9344
:10271000089564FF03C081E08C9312C01C9210C026
:102720002F57304013963C932E93129783E08C934F
:1027300087E0440F551F661F771F8A95D1F7706495
:1027400014964D935D936D937C93179708951F9303
:10275000DC01FB019C91923008F447C080818230FB
:1027600008F443C0943051F411961C91843099F5CB
:102770008181682F70E0611B71093FC0843021F0B6
:10278000923031F48230B9F18181882389F12DC0F2
:1027900011961C9111978230F1F081811817D9F4AC
:1027A00012962D913C911397828193818217930702
:1027B00094F028173907BCF014968D919D910D90D7
:1027C000BC91A02D24813581468157812817390776
:1027D0004A075B0718F4112341F00AC082179307D8
:1027E000A407B50740F4112319F061E070E005C0BB
:1027F0006FEF7FEF02C060E070E0CB011F910895A2
:102800003E9A3F9A3D98359886B1887F86B986B1C1
:10281000836086B9379833980895379A0895379822
:102820000895339A089533980895982FFB01611500
:10283000710501F187B1807E87B987B1892B87B98E
:10284000369A349918C080E090E0A0E0B0E008C06B
:10285000803523EC920720E0A20720E0B20759F070
:102860000196A11DB11D349BF3CF8155934CA0401F
:10287000B04008F00895349A84B145B1342F20E077
:1028800090E0282B392B318320830895982F6115F0
:10289000710599F04115510581F07093B90160936C
:1028A000B8015093BB014093BA0187B1807E87B9CC
:1028B00087B1892B87B9369A339A08951F920F9260
:1028C0000FB60F9211242F933F934F935F936F9303
:1028D0007F938F939F93AF93BF93EF93FF9324B115
:1028E00045B1E091B801F091B901942F80E030E05A
:1028F000822B932B91838083E091BA01F091BB01ED
:102900000995349AFF91EF91BF91AF919F918F916B
:102910007F916F915F914F913F912F910F900FBEDB
:102920000F901F901895DF93CF9300D00F92CDB7E3
:10293000DEB7962F6983672F7A838B83892F0E9456
:1029400012170F900F900F90CF91DF910895DF93A2
:10295000CF9300D00F92CDB7DEB7262F69837A834D
:102960008B83672F813061F0882321F4822F41E02F
:102970000E946B160F900F900F90CF91DF910895EA
:10298000822F40E00E946B160F900F900F90CF9116
:10299000DF910895DF93CF9300D00F92CDB7DEB7CC
:1029A000262F69837A838B83672F813061F0882398
:1029B00021F4822F40E00E946B160F900F900F9031
:1029C000CF91DF910895822F41E00E946B160F9006
:1029D0000F900F90CF91DF910895DF93CF9300D0A8
:1029E0000F92CDB7DEB7962F6983672F7A838B83DB
:1029F000892F41E00E94F6150F900F900F90CF9114
:102A0000DF91089585B78E7F85BF85B78D7F85BFA0
:102A100085B78B7F85BF85B7877F85BF85B7836087
:102A200085BF85B7886085BF84B78F7B84BF8BB730
:102A30008F7B8BBF8BB78F778BBF8BB78F7D8BBF18
:102A40008AB780628ABF8AB780648ABF8AB7806883
:102A50008ABF08958FB780688FBF08958FB78F772B
:102A60008FBF08958BB780648BBF08958BB78F7B22
:102A70008BBF08958BB780688BBF08958BB78F7716
:102A80008BBF08958BB780628BBF08958BB78F7D06
:102A90008BBF08959AB721E030E002C0220F331FA8
:102AA0008A95E2F7922B9ABF0895009721F09093B0
:102AB000BD018093BC010895009721F09093BF0160
:102AC0008093BE010895009721F09093C1018093F7
:102AD000C00108951F920F920FB60F9211242F93E9
:102AE0003F934F935F936F937F938F939F93AF9396
:102AF000BF93EF93FF93E091BC01F091BD0130973C
:102B000021F009958AB780648ABFFF91EF91BF9148
:102B1000AF919F918F917F916F915F914F913F9175
:102B20002F910F900FBE0F901F9018951F920F922C
:102B30000FB60F9211242F933F934F935F936F9390
:102B40007F938F939F93AF93BF93EF93FF93E09106
:102B5000BE01F091BF01309721F009958AB78068D6
:102B60008ABFFF91EF91BF91AF919F918F917F911C
:102B70006F915F914F913F912F910F900FBE0F90EA
:102B80001F9018951F920F920FB60F9211242F933A
:102B90003F934F935F936F937F938F939F93AF93E5
:102BA000BF93EF93FF93E091C001F091C101309783
:102BB00021F009958AB780628ABFFF91EF91BF919A
:102BC000AF919F918F917F916F915F914F913F91C5
:102BD0002F910F900FBE0F901F9018958FB78068A0
:102BE0008FBF08958FB78F778FBF0895413069F0F9
:102BF000442351F4813009F44CC08130D8F0823044
:102C000009F43BC0833069F10895813009F458C05C
:102C10008130E0F0823009F448C08330A9F721B355
:102C200081E090E002C0880F991F6A95E2F7282B97
:102C300021BB08952AB381E090E002C0880F991F5C
:102C40006A95E2F7809582238ABB08952AB381E0D2
:102C500090E002C0880F991F6A95E2F7282B2ABBE3
:102C6000089521B381E090E002C0880F991F6A9512
:102C7000E2F78095822381BB089524B381E090E040
:102C800002C0880F991F6A95E2F78095822384BB62
:102C9000089527B381E090E002C0880F991F6A95DC
:102CA000E2F78095822387BB089524B381E090E00A
:102CB00002C0880F991F6A95E2F7282B24BB08955C
:102CC00027B381E090E002C0880F991F6A95E2F770
:102CD000282B27BB0895413069F0442351F48130FB
:102CE00009F44CC08130D8F0823009F43BC0833005
:102CF00069F10895813009F458C08130E0F08230E4
:102D000009F448C08330A9F722B381E090E002C003
:102D1000880F991F6A95E2F7282B22BB08952BB3E1
:102D200081E090E002C0880F991F6A95E2F78095D4
:102D300082238BBB08952BB381E090E002C0880F03
:102D4000991F6A95E2F7282B2BBB089522B381E0E7
:102D500090E002C0880F991F6A95E2F78095822360
:102D600082BB089525B381E090E002C0880F991FCF
:102D70006A95E2F78095822385BB089528B381E0A8
:102D800090E002C0880F991F6A95E2F78095822330
:102D900088BB089525B381E090E002C0880F991F99
:102DA0006A95E2F7282B25BB089528B381E090E0CF
:102DB00002C0880F991F6A95E2F7282B28BB089557
:102DC000813061F1813090F429B381E090E0062EEA
:102DD00002C0880F991F0A94E2F730E08223932300
:102DE00002C0959587956A95E2F708958230C1F003
:102DF000833011F080E0089520B381E090E0062E4A
:102E000002C0880F991F0A94E2F730E082239323CF
:102E100002C0959587956A95E2F7089526B3D5CFB8
:102E200023B3D3CF8130E9F0813028F0823021F113
:102E3000833061F008952BB381E090E002C0880FE9
:102E4000991F6A95E2F728272BBB089522B381E0EA
:102E500090E002C0880F991F6A95E2F7282722BBED
:102E6000089528B381E090E002C0880F991F6A9509
:102E7000E2F7282728BB089525B381E090E002C03F
:102E8000880F991F6A95E2F7282725BB08956F3FA1
:102E900059F0662341F48130C9F0813078F08230F6
:102EA00099F0833079F008958130A1F0813040F0BD
:102EB000823071F08330B9F761BB08951ABA089572
:102EC0006ABB089511BA089514BA089517BA0895FF
:102ED00064BB089567BB0895813059F0813028F0B4
:102EE000823049F0833019F008956BBB089562BBBE
:102EF000089568BB089565BB0895813061F0813005
:102F000030F0823051F0833021F080E0089589B3B1
:102F1000089580B3089586B3089583B308956F70BC
:102F20008130A9F0813028F08230C1F0833041F047
:102F300008958BB3807F8BBB8BB3682B6BBB0895DD
:102F400082B3807F82BB82B3682B62BB089588B353
:102F5000807F88BB88B3682B68BB089585B3807F6A
:102F600085BB85B3682B65BB08956295607F813012
:102F7000A9F0813028F08230C1F0833041F008950B
:102F80008BB38F708BBB8BB3682B6BBB089582B3F5
:102F90008F7082BB82B3682B62BB089588B38F7039
:102FA00088BB88B3682B68BB089585B38F7085BBD9
:102FB00085B3682B65BB08958130A9F0813028F076
:102FC0008230C1F0833041F008958AB3807F8ABB9C
:102FD0008AB3862B8ABB089581B3807F81BB81B37E
:102FE000862B81BB089587B3807F87BB87B3862BF1
:102FF00087BB089584B3807F84BB84B3862B84BB56
:1030000008958130A9F0813028F08230C1F08330FA
:1030100041F008958AB38F708ABB8AB3862B8ABB2E
:10302000089581B38F7081BB81B3862B81BB0895D6
:1030300087B38F7087BB87B3862B87BB089584B314
:103040008F7084BB84B3862B84BB089508950F933F
:103050001F9382E062E041E00E946B160AEF10E0ED
:10306000C8010197F1F782E062E040E00E946B1630
:10307000C8010197F1F71F910F9108951F93182F21
:1030800082E060E040E00E946B1682E061E040E098
:103090000E946B16612F62956F7082E00E94B517D7
:1030A0000E94271882E0612F0E94B5170E942718FE
:1030B0008AEF90E00197F1F71F91089581E00E9457
:1030C0003E1884EC99E00197F1F70895982F862F28
:1030D0008150803158F4992349F0933038F491307D
:1030E00069F0862F81540E943E1803C080E80E9438
:1030F0003E188AEF90E00197F1F70895862F8158E6
:103100000E943E18F6CF1F93182F82E060E041E046
:103110000E946B1682E061E040E00E946B16612F16
:1031200062956F7082E00E94B5170E94271882E0B6
:10313000612F0E94B5170E9427188AEF90E001972F
:10314000F1F71F9108952F923F924F925F926F92E5
:103150007F928F929F92AF92BF92CF92DF92EF9227
:10316000FF920F931F93DF93CF93CDB7DEB72A97CC
:103170000FB6F894DEBF0FBECDBF2B833C834D83CB
:103180005E836F83788789879A87822F832B842B2E
:10319000852B862B872B4985842B892B09F443C1EA
:1031A0009924939466243324222444245524772498
:1031B0008824292D362D432D522DB201872D982D8F
:1031C00001E00E944900122FF32EE42ED52EC62EC8
:1031D000B72EA82E792E02E00E944900822E810E81
:1031E000E1E0811608F0E0E03F0D21E03F1508F036
:1031F00020E06E2E630EE1E0631608F0E0E02E2B77
:103200004E0D31E04E1508F030E0522E540E21E004
:10321000541608F020E0322B5D0D21E05D1508F01A
:1032200020E0432E450E31E0451608F030E0232B18
:103230006C0D31E06C1508F030E0322E360E21E0D6
:10324000361608F020E0322B7B0D21E07B1508F0CC
:1032500020E0232E270E31E0271608F030E0232B44
:103260008A0D31E08A1508F030E0280F298321E02B
:10327000A981A81708F020E0932E922A970D990EA5
:103280002B813C814D815E816F81788589859A850E
:10329000AAE0AA2EBB24CC24DD24EE24FF2400E0E7
:1032A00010E00E946907122F180DF1E0121708F0C4
:1032B000F0E0232F260DE1E0231708F0E0E00F2FC8
:1032C000020F31E0021708F030E0E32B242F250D28
:1032D00031E0241708F030E0FE2FF20F41E0F21742
:1032E00008F040E0342B252F240D41E0251708F08D
:1032F00040E0E32FE20F31E0E21708F030E0432B2B
:10330000262F230D31E0261708F030E0642F620FDE
:1033100041E0621708F040E0342B272F220D41E0F6
:10332000271708F040E0532F520F31E0521708F0F2
:1033300030E0432B2981280F31E0281708F030E0D6
:10334000420F81E0421708F080E0382B990EB32F2E
:10335000B90DBA83912E602E1F01462E552E742E64
:103360008B2E2B813C814D815E816F817885898593
:103370009A85FAE0AF2EBB24CC24DD24EE24FF2472
:1033800000E010E00E94F4002B833C834D835E83B9
:103390006F83788789879A87822F832B842B852B4D
:1033A000862B872BE9858E2B892B09F002CFF1E044
:1033B0009F1609F454C0292D362D432D522DB201EC
:1033C000872D982DEAE0AE2EBB24CC24DD24EE24FC
:1033D000FF2400E010E00E946907822F805D0E94B8
:1033E0008318292D362D432D522DB201872D982D6E
:1033F0000E94F400922E632E342E252E2B01782E5F
:10340000892E41E09416B9F66620A9F6332099F684
:10341000222089F6442079F6552069F6772059F65E
:10342000992349F603C080E30E9483182A960FB6B9
:10343000F894DEBF0FBECDBFCF91DF911F910F91EA
:10344000FF90EF90DF90CF90BF90AF909F908F90C4
:103450007F906F905F904F903F902F9008956620DF
:1034600009F0A9CF332009F0A6CF222009F0A3CF7D
:10347000442009F0A0CF552009F09DCF772009F016
:103480009ACF882099F297CF1F93CF93DF93EC01C7
:103490008881882351F010E00E9483181F5FFE018D
:1034A000E10FF11D80818823B9F7DF91CF911F9142
:1034B00008950F931F9384ED90E30197F1F782E055
:1034C00060EF0E94011882E060E041E00E94F61582
:1034D00082E061E041E00E94F61582E062E041E0B6
:1034E0000E94F61582E00E943E188CE49DE101974F
:1034F000F1F788E20E943E180AEF10E0C801019738
:10350000F1F78CE00E943E18C8010197F1F70E9484
:103510005E1886E00E943E18C8010197F1F71F91DE
:103520000F910895DF93CF9300D00F92CDB7DEB700
:10353000962F6983672F7A838B83892F0E94E016E9
:103540000F900F900F90CF91DF910895DF93CF935D
:1035500000D00F92CDB7DEB7962F6983672F7A839D
:103560008B83892F0E9412170F900F900F90CF918D
:10357000DF910895DF93CF9300D00F92CDB7DEB7E0
:10358000262F69837A838B83672F813061F08823AC
:1035900021F4822F41E00E946B160F900F900F9044
:1035A000CF91DF910895822F40E00E946B160F901B
:1035B0000F900F90CF91DF910895DF93CF9300D0BC
:1035C0000F92CDB7DEB7262F69837A838B83672F5F
:1035D000813061F0882321F4822F40E00E946B1635
:1035E0000F900F900F90CF91DF910895822F41E0BF
:1035F0000E946B160F900F900F90CF91DF9108955E
:10360000DF93CF9300D00F92CDB7DEB7962F6983AB
:10361000672F7A838B83892F41E00E94F6150F90E4
:103620000F900F90CF91DF910895992787FD909586
:10363000A92FB92FBC01CD010E94591120E030E023
:1036400044EB52E40E947D1020E030E04AEF53E466
:103650000E94830F20E030E64BEB54E40E94560FAB
:103660000E94C800DC01CB010E94CC1B0895992761
:1036700087FD9095A92FB92FBC01CD010E9459114A
:1036800020E030E044EB52E40E947D1020E030E086
:103690004AEF53E40E94830F20E030E64BEB54E402
:1036A0000E94560F0E94C800DC01CB010E94C91B7A
:1036B000089583B7806483BF83B7886083BF83B76F
:1036C0008F7E83BF83B7806283BF1CBE83B7887F32
:1036D00083BF83B7836083BF089589B7826089BF42
:1036E000089589B78D7F89BF089582BF08958CBFE3
:1036F000089582B70895982F823060F0853648F497
:103700008FEF989FC001112464E670E00E94431F70
:103710006CBF08958FEF989FC00111248CBF08954E
:103720008FB58E7F8FBD8FB582608FBD8EB588605F
:103730008EBD8EB580618EBD1BBC1ABC19BC18BC79
:103740008FE19EE497BD86BD8EB580648EBD8FB53A
:103750008F7B8FBD8FB580688FBD8FB58F7E8FBDFE
:103760008FB580628FBD89B78B7F89BF89B78F7E08
:1037700089BF89B7877F89BF89B78F7D89BF8EB59C
:10378000887F8EBD8EB581608EBD08959DBD8CBD38
:1037900008959BBD8ABD089599BD88BD089597BDC4
:1037A00086BD0895089508952CB53DB5C9010895C5
:1037B0008EB580648EBD89B7806289BF08958130DF
:1037C00031F0882319F48EB58F7B8EBD08958EB5A8
:1037D00080648EBD089589B7806289BF089589B7D6
:1037E0008F7D89BF089526B537B5C901089581B584
:1037F000887F81BD81B5866081BD089581B588606F
:1038000081BD089581B5886181BD11BC089585B5DC
:10381000806485BD85B5886085BD85B58F7E85BD95
:1038200085B5806285BD13BC85B5887F85BD85B5AE
:10383000826085BD089589B7806889BF089589B77A
:103840008F7789BF089584BD089583BD089584B599
:103850000895982F823060F0853648F48FEF989F56
:10386000C001112464E670E00E94431F63BD089507
:103870008FEF989FC001112483BD0895009741F0F8
:10388000E62FF0E0EE0FFF1FEE53FE4F9183808393
:1038900008951F920F920FB60F9211242F933F930A
:1038A0004F935F936F937F938F939F93AF93BF9348
:1038B000EF93FF93E091D801F091D901309709F08F
:1038C0000995FF91EF91BF91AF919F918F917F915A
:1038D0006F915F914F913F912F910F900FBE0F907D
:1038E0001F9018951F920F920FB60F9211242F93CD
:1038F0003F934F935F936F937F938F939F93AF9378
:10390000BF93EF93FF93E091D601F091D7013097E9
:1039100009F00995FF91EF91BF91AF919F918F9120
:103920007F916F915F914F913F912F910F900FBEBB
:103930000F901F9018951F920F920FB60F9211249F
:103940002F933F934F935F936F937F938F939F93A7
:10395000AF93BF93EF93FF93E091D401F091D50122
:10396000309709F00995FF91EF91BF91AF919F9129
:103970008F917F916F915F914F913F912F910F9018
:103980000FBE0F901F9018951F920F920FB60F92B7
:1039900011242F933F934F935F936F937F938F9354
:1039A0009F93AF93BF93EF93FF93E091D201F09178
:1039B000D301309709F00995FF91EF91BF91AF9135
:1039C0009F918F917F916F915F914F913F912F9137
:1039D0000F900FBE0F901F9018951F920F920FB669
:1039E0000F9211242F933F934F935F936F937F9385
:1039F0008F939F93AF93BF93EF93FF93E091D00189
:103A0000F091D101309709F00995FF91EF91BF91A5
:103A1000AF919F918F917F916F915F914F913F9166
:103A20002F910F900FBE0F901F9018951F920F921D
:103A30000FB60F9211242F933F934F935F936F9381
:103A40007F938F939F93AF93BF93EF93FF93E091F7
:103A5000CE01F091CF01309709F00995FF91EF91D8
:103A6000BF91AF919F918F917F916F915F914F9196
:103A70003F912F910F900FBE0F901F9018951F929E
:103A80000F920FB60F9211242F933F934F935F9392
:103A90006F937F938F939F93AF93BF93EF93FF9316
:103AA000E091CC01F091CD01309709F00995FF919B
:103AB000EF91BF91AF919F918F917F916F915F91A6
:103AC0004F913F912F910F900FBE0F901F9018951F
:103AD0001F920F920FB60F9211242F933F934F9383
:103AE0005F936F937F938F939F93AF93BF93EF9366
:103AF000FF93E091CA01F091CB01309709F009954D
:103B0000FF91EF91BF91AF919F918F917F916F91B5
:103B10005F914F913F912F910F900FBE0F901F908B
:103B200018950F931F93CF93DF9385B7806885BF58
:103B300085B7806885BF83E062E040E00E94F615AB
:103B400083E061E040E00E94F61583E060E040E041
:103B50000E94F61583E064E041E00E94F61583E0E0
:103B600065E041E00E94F6156091B2017091B301E9
:103B70008091B4010E94ED146091B5017091B6017D
:103B80008091B7010E94001B0E9400140E94591AE4
:103B90000E94901B0E940D140E94EE1580E690E09A
:103BA0000E94441A1092EC011092EB011092E50170
:103BB0001092E401C0E0D0E080E062EE71E00E948B
:103BC00015146091E2017091E30180E090E020E043
:103BD0003AE040E050E00E94101F26EF37E240E05C
:103BE00050E00E94561F8091EB019091EC01820FF2
:103BF000931F9093EC018093EB012196CA30D1057D
:103C0000D9F600E010E081E068EE71E00E94151442
:103C1000C091E401D091E5016091E8017091E90162
:103C200080E090E020E03AE040E050E00E94101F89
:103C30002FEF33E040E050E00E94561FC20FD31F29
:103C4000D093E501C093E4010F5F1F4F0A301105C7
:103C5000D1F68091EB019091EC016AE070E00E9456
:103C60002F1F7093EC016093EB01CE016AE070E0CE
:103C70000E942F1F7093E5016093E40183E062E0EE
:103C80000E94E0168093E60183E061E00E94E01666
:103C90008093EA0183E060E00E94E0168093E701F0
:103CA00081E063E00E9466188091E4019091E50153
:103CB0008D5D954008F452C06091B5017091B601D8
:103CC0008091B7010E94DD1A2091EB013091EC0147
:103CD0002436310508F052C0C9010B97893591058A
:103CE00008F498C02A30310508F497C08091E601A5
:103CF000882309F45CC082E061E00E9466188CE6CB
:103D000090E00E94441A6091B2017091B3018091D9
:103D1000B4010E94CA148091EA01882309F05CC0B2
:103D200081E069E00E9466188CE790E00E94441AE6
:103D300080ED97E00E94CC1B8091E701882309F079
:103D40005CC082E069E00E94661887E990E00E940A
:103D5000441A84EF91E00E94C91B24CF6091B50101
:103D60007091B6018091B7010E94BA1A2091EB01BF
:103D70003091EC012436310508F4AECF83E690E0B3
:103D80000E94441A4091EB015091EC019A0140E0ED
:103D900050E060E070E080E090E00E94A31883E4CF
:103DA0000E9483188091E601882309F0A4CF82E065
:103DB00061E00E94661884E790E00E94441A6091D6
:103DC000B2017091B3018091B4010E94A714809157
:103DD000EA01882309F4A4CF81E069E00E94661813
:103DE00084EF91E00E94CC1B85E890E00E94441A89
:103DF0008091E701882309F4A4CF82E069E00E9462
:103E000066188EE890E00E94441A8CEF98E00E94B9
:103E1000C91BC8CE85E690E0B3CF88E690E0B0CF6E
:103E2000629FD001739FF001829FE00DF11D649F9E
:103E3000E00DF11D929FF00D839FF00D749FF00D2A
:103E4000659FF00D9927729FB00DE11DF91F639FCB
:103E5000B00DE11DF91FBD01CF0111240895AA1B6A
:103E6000BB1B51E107C0AA1FBB1FA617B70710F065
:103E7000A61BB70B881F991F5A95A9F78095909597
:103E8000BC01CD01089597FB092E07260AD077FDC6
:103E900004D0E5DF06D000201AF4709561957F4FBD
:103EA0000895F6F7909581959F4F0895A1E21A2EF7
:103EB000AA1BBB1BFD010DC0AA1FBB1FEE1FFF1FCE
:103EC000A217B307E407F50720F0A21BB30BE40B1E
:103ED000F50B661F771F881F991F1A9469F7609565
:103EE0007095809590959B01AC01BD01CF0108951F
:103EF0002F923F924F925F926F927F928F929F92FA
:103F0000AF92BF92CF92DF92EF92FF920F931F93E7
:103F1000CF93DF93CDB7DEB7CA1BDB0B0FB6F89498
:103F2000DEBF0FBECDBF09942A88398848885F84D8
:103F30006E847D848C849B84AA84B984C884DF8049
:103F4000EE80FD800C811B81AA81B981CE0FD11D2D
:103F50000FB6F894DEBF0FBECDBFED010895F89403
:023F6000FFCF91
:103F6200543D002000202000202020004669726578
:103F72002121210020202020202020005261696E72
:103F8200696E672100202020202020202000445F2D
:103F92004F70656E656400445F436C6F73656420A7
:103FA20020202020202020202000000000000000EF
:103FB20000000001020203030303040404040404D6
:103FC20004040505050505050505050505050505A1
:103FD2000505060606060606060606060606060681
:103FE200060606060606060606060606060606066F
:103FF2000606070707070707070707070707070751
:10400200070707070707070707070707070707073E
:10401200070707070707070707070707070707072E
:10402200070707070707070707070707070707071E
:104032000707080808080808080808080808080800
:1040420008080808080808080808080808080808EE
:1040520008080808080808080808080808080808DE
:1040620008080808080808080808080808080808CE
:1040720008080808080808080808080808080808BE
:1040820008080808080808080808080808080808AE
:10409200080808080808080808080808080808089E
:1040A200080808080808080808080808080808088E
:0840B2000808030301010001ED
:00000001FF
